{
  "_format": "hh-sol-artifact-1",
  "contractName": "MyNFT",
  "sourceName": "contracts/MyNFT.sol",
  "abi": [
    {
      "inputs": [],
      "stateMutability": "nonpayable",
      "type": "constructor"
    },
    {
      "anonymous": false,
      "inputs": [
        {
          "indexed": true,
          "internalType": "address",
          "name": "owner",
          "type": "address"
        },
        {
          "indexed": true,
          "internalType": "address",
          "name": "approved",
          "type": "address"
        },
        {
          "indexed": true,
          "internalType": "uint256",
          "name": "tokenId",
          "type": "uint256"
        }
      ],
      "name": "Approval",
      "type": "event"
    },
    {
      "anonymous": false,
      "inputs": [
        {
          "indexed": true,
          "internalType": "address",
          "name": "owner",
          "type": "address"
        },
        {
          "indexed": true,
          "internalType": "address",
          "name": "operator",
          "type": "address"
        },
        {
          "indexed": false,
          "internalType": "bool",
          "name": "approved",
          "type": "bool"
        }
      ],
      "name": "ApprovalForAll",
      "type": "event"
    },
    {
      "anonymous": false,
      "inputs": [
        {
          "indexed": true,
          "internalType": "address",
          "name": "from",
          "type": "address"
        },
        {
          "indexed": true,
          "internalType": "address",
          "name": "to",
          "type": "address"
        },
        {
          "indexed": true,
          "internalType": "uint256",
          "name": "tokenId",
          "type": "uint256"
        }
      ],
      "name": "Transfer",
      "type": "event"
    },
    {
      "inputs": [
        {
          "internalType": "address",
          "name": "to",
          "type": "address"
        },
        {
          "internalType": "uint256",
          "name": "tokenId",
          "type": "uint256"
        }
      ],
      "name": "approve",
      "outputs": [],
      "stateMutability": "nonpayable",
      "type": "function"
    },
    {
      "inputs": [
        {
          "internalType": "address",
          "name": "owner",
          "type": "address"
        }
      ],
      "name": "balanceOf",
      "outputs": [
        {
          "internalType": "uint256",
          "name": "",
          "type": "uint256"
        }
      ],
      "stateMutability": "view",
      "type": "function"
    },
    {
      "inputs": [
        {
          "internalType": "uint256",
          "name": "tokenId",
          "type": "uint256"
        }
      ],
      "name": "getApproved",
      "outputs": [
        {
          "internalType": "address",
          "name": "",
          "type": "address"
        }
      ],
      "stateMutability": "view",
      "type": "function"
    },
    {
      "inputs": [
        {
          "internalType": "address",
          "name": "owner",
          "type": "address"
        },
        {
          "internalType": "address",
          "name": "operator",
          "type": "address"
        }
      ],
      "name": "isApprovedForAll",
      "outputs": [
        {
          "internalType": "bool",
          "name": "",
          "type": "bool"
        }
      ],
      "stateMutability": "view",
      "type": "function"
    },
    {
      "inputs": [],
      "name": "mintNFT",
      "outputs": [],
      "stateMutability": "nonpayable",
      "type": "function"
    },
    {
      "inputs": [],
      "name": "name",
      "outputs": [
        {
          "internalType": "string",
          "name": "",
          "type": "string"
        }
      ],
      "stateMutability": "view",
      "type": "function"
    },
    {
      "inputs": [
        {
          "internalType": "uint256",
          "name": "tokenId",
          "type": "uint256"
        }
      ],
      "name": "ownerOf",
      "outputs": [
        {
          "internalType": "address",
          "name": "",
          "type": "address"
        }
      ],
      "stateMutability": "view",
      "type": "function"
    },
    {
      "inputs": [
        {
          "internalType": "address",
          "name": "from",
          "type": "address"
        },
        {
          "internalType": "address",
          "name": "to",
          "type": "address"
        },
        {
          "internalType": "uint256",
          "name": "tokenId",
          "type": "uint256"
        }
      ],
      "name": "safeTransferFrom",
      "outputs": [],
      "stateMutability": "nonpayable",
      "type": "function"
    },
    {
      "inputs": [
        {
          "internalType": "address",
          "name": "from",
          "type": "address"
        },
        {
          "internalType": "address",
          "name": "to",
          "type": "address"
        },
        {
          "internalType": "uint256",
          "name": "tokenId",
          "type": "uint256"
        },
        {
          "internalType": "bytes",
          "name": "_data",
          "type": "bytes"
        }
      ],
      "name": "safeTransferFrom",
      "outputs": [],
      "stateMutability": "nonpayable",
      "type": "function"
    },
    {
      "inputs": [
        {
          "internalType": "address",
          "name": "operator",
          "type": "address"
        },
        {
          "internalType": "bool",
          "name": "approved",
          "type": "bool"
        }
      ],
      "name": "setApprovalForAll",
      "outputs": [],
      "stateMutability": "nonpayable",
      "type": "function"
    },
    {
      "inputs": [
        {
          "internalType": "bytes4",
          "name": "interfaceId",
          "type": "bytes4"
        }
      ],
      "name": "supportsInterface",
      "outputs": [
        {
          "internalType": "bool",
          "name": "",
          "type": "bool"
        }
      ],
      "stateMutability": "view",
      "type": "function"
    },
    {
      "inputs": [],
      "name": "symbol",
      "outputs": [
        {
          "internalType": "string",
          "name": "",
          "type": "string"
        }
      ],
      "stateMutability": "view",
      "type": "function"
    },
    {
      "inputs": [
        {
          "internalType": "uint256",
          "name": "tokenId",
          "type": "uint256"
        }
      ],
      "name": "tokenURI",
      "outputs": [
        {
          "internalType": "string",
          "name": "",
          "type": "string"
        }
      ],
      "stateMutability": "view",
      "type": "function"
    },
    {
      "inputs": [
        {
          "internalType": "address",
          "name": "from",
          "type": "address"
        },
        {
          "internalType": "address",
          "name": "to",
          "type": "address"
        },
        {
          "internalType": "uint256",
          "name": "tokenId",
          "type": "uint256"
        }
      ],
      "name": "transferFrom",
      "outputs": [],
      "stateMutability": "nonpayable",
      "type": "function"
    }
  ],
  "bytecode": "0x60806040523480156200001157600080fd5b506040518060400160405280600981526020017f5371756172654e465400000000000000000000000000000000000000000000008152506040518060400160405280600681526020017f5351554152450000000000000000000000000000000000000000000000000000815250816000908051906020019062000096929190620001cf565b508060019080519060200190620000af929190620001cf565b505050620000fd6040518060400160405280601281526020017f4669727374204e465420636f6e747261637400000000000000000000000000008152506200010360201b62000cbe1760201c565b620003ac565b620001a3816040516024016200011a9190620002c0565b6040516020818303038152906040527f41304fac000000000000000000000000000000000000000000000000000000007bffffffffffffffffffffffffffffffffffffffffffffffffffffffff19166020820180517bffffffffffffffffffffffffffffffffffffffffffffffffffffffff8381831617835250505050620001a660201b60201c565b50565b60008151905060006a636f6e736f6c652e6c6f679050602083016000808483855afa5050505050565b828054620001dd9062000336565b90600052602060002090601f0160209004810192826200020157600085556200024d565b82601f106200021c57805160ff19168380011785556200024d565b828001600101855582156200024d579182015b828111156200024c5782518255916020019190600101906200022f565b5b5090506200025c919062000260565b5090565b5b808211156200027b57600081600090555060010162000261565b5090565b60006200028c82620002e4565b620002988185620002ef565b9350620002aa81856020860162000300565b620002b5816200039b565b840191505092915050565b60006020820190508181036000830152620002dc81846200027f565b905092915050565b600081519050919050565b600082825260208201905092915050565b60005b838110156200032057808201518184015260208101905062000303565b8381111562000330576000848401525b50505050565b600060028204905060018216806200034f57607f821691505b602082108114156200036657620003656200036c565b5b50919050565b7f4e487b7100000000000000000000000000000000000000000000000000000000600052602260045260246000fd5b6000601f19601f8301169050919050565b612bff80620003bc6000396000f3fe608060405234801561001057600080fd5b50600436106100ea5760003560e01c80636352211e1161008c578063a22cb46511610066578063a22cb46514610249578063b88d4fde14610265578063c87b56dd14610281578063e985e9c5146102b1576100ea565b80636352211e146101cb57806370a08231146101fb57806395d89b411461022b576100ea565b8063095ea7b3116100c8578063095ea7b31461016d57806314f710fe1461018957806323b872dd1461019357806342842e0e146101af576100ea565b806301ffc9a7146100ef57806306fdde031461011f578063081812fc1461013d575b600080fd5b61010960048036038101906101049190611d60565b6102e1565b6040516101169190612524565b60405180910390f35b6101276103c3565b604051610134919061253f565b60405180910390f35b61015760048036038101906101529190611db2565b610455565b60405161016491906124bd565b60405180910390f35b61018760048036038101906101829190611d24565b6104da565b005b6101916105f2565b005b6101ad60048036038101906101a89190611c1e565b610679565b005b6101c960048036038101906101c49190611c1e565b6106d9565b005b6101e560048036038101906101e09190611db2565b6106f9565b6040516101f291906124bd565b60405180910390f35b61021560048036038101906102109190611bb9565b6107ab565b604051610222919061279f565b60405180910390f35b610233610863565b604051610240919061253f565b60405180910390f35b610263600480360381019061025e9190611ce8565b6108f5565b005b61027f600480360381019061027a9190611c6d565b610a76565b005b61029b60048036038101906102969190611db2565b610ad8565b6040516102a8919061253f565b60405180910390f35b6102cb60048036038101906102c69190611be2565b610c2a565b6040516102d89190612524565b60405180910390f35b60007f80ac58cd000000000000000000000000000000000000000000000000000000007bffffffffffffffffffffffffffffffffffffffffffffffffffffffff1916827bffffffffffffffffffffffffffffffffffffffffffffffffffffffff191614806103ac57507f5b5e139f000000000000000000000000000000000000000000000000000000007bffffffffffffffffffffffffffffffffffffffffffffffffffffffff1916827bffffffffffffffffffffffffffffffffffffffffffffffffffffffff1916145b806103bc57506103bb82610d57565b5b9050919050565b6060600080546103d2906129cf565b80601f01602080910402602001604051908101604052809291908181526020018280546103fe906129cf565b801561044b5780601f106104205761010080835404028352916020019161044b565b820191906000526020600020905b81548152906001019060200180831161042e57829003601f168201915b5050505050905090565b600061046082610dc1565b61049f576040517f08c379a0000000000000000000000000000000000000000000000000000000008152600401610496906126ff565b60405180910390fd5b6004600083815260200190815260200160002060009054906101000a900473ffffffffffffffffffffffffffffffffffffffff169050919050565b60006104e5826106f9565b90508073ffffffffffffffffffffffffffffffffffffffff168373ffffffffffffffffffffffffffffffffffffffff161415610556576040517f08c379a000000000000000000000000000000000000000000000000000000000815260040161054d9061275f565b60405180910390fd5b8073ffffffffffffffffffffffffffffffffffffffff16610575610e2d565b73ffffffffffffffffffffffffffffffffffffffff1614806105a457506105a38161059e610e2d565b610c2a565b5b6105e3576040517f08c379a00000000000000000000000000000000000000000000000000000000081526004016105da9061263f565b60405180910390fd5b6105ed8383610e35565b505050565b60006105fe6007610eee565b905061060a3382610efc565b610649816040518060400160405280601d81526020017f68747470733a2f2f6a736f6e6b65657065722e636f6d2f622f30595941000000815250610f1a565b61066c604051806060016040528060258152602001612ba5602591398233610f8e565b610676600761102d565b50565b61068a610684610e2d565b82611043565b6106c9576040517f08c379a00000000000000000000000000000000000000000000000000000000081526004016106c09061277f565b60405180910390fd5b6106d4838383611121565b505050565b6106f483838360405180602001604052806000815250610a76565b505050565b6000806002600084815260200190815260200160002060009054906101000a900473ffffffffffffffffffffffffffffffffffffffff169050600073ffffffffffffffffffffffffffffffffffffffff168173ffffffffffffffffffffffffffffffffffffffff1614156107a2576040517f08c379a00000000000000000000000000000000000000000000000000000000081526004016107999061267f565b60405180910390fd5b80915050919050565b60008073ffffffffffffffffffffffffffffffffffffffff168273ffffffffffffffffffffffffffffffffffffffff16141561081c576040517f08c379a00000000000000000000000000000000000000000000000000000000081526004016108139061265f565b60405180910390fd5b600360008373ffffffffffffffffffffffffffffffffffffffff1673ffffffffffffffffffffffffffffffffffffffff168152602001908152602001600020549050919050565b606060018054610872906129cf565b80601f016020809104026020016040519081016040528092919081815260200182805461089e906129cf565b80156108eb5780601f106108c0576101008083540402835291602001916108eb565b820191906000526020600020905b8154815290600101906020018083116108ce57829003601f168201915b5050505050905090565b6108fd610e2d565b73ffffffffffffffffffffffffffffffffffffffff168273ffffffffffffffffffffffffffffffffffffffff16141561096b576040517f08c379a0000000000000000000000000000000000000000000000000000000008152600401610962906125ff565b60405180910390fd5b8060056000610978610e2d565b73ffffffffffffffffffffffffffffffffffffffff1673ffffffffffffffffffffffffffffffffffffffff16815260200190815260200160002060008473ffffffffffffffffffffffffffffffffffffffff1673ffffffffffffffffffffffffffffffffffffffff16815260200190815260200160002060006101000a81548160ff0219169083151502179055508173ffffffffffffffffffffffffffffffffffffffff16610a25610e2d565b73ffffffffffffffffffffffffffffffffffffffff167f17307eab39ab6107e8899845ad3d59bd9653f200f220920489ca2b5937696c3183604051610a6a9190612524565b60405180910390a35050565b610a87610a81610e2d565b83611043565b610ac6576040517f08c379a0000000000000000000000000000000000000000000000000000000008152600401610abd9061277f565b60405180910390fd5b610ad28484848461137d565b50505050565b6060610ae382610dc1565b610b22576040517f08c379a0000000000000000000000000000000000000000000000000000000008152600401610b19906126df565b60405180910390fd5b6000600660008481526020019081526020016000208054610b42906129cf565b80601f0160208091040260200160405190810160405280929190818152602001828054610b6e906129cf565b8015610bbb5780601f10610b9057610100808354040283529160200191610bbb565b820191906000526020600020905b815481529060010190602001808311610b9e57829003601f168201915b505050505090506000610bcc6113d9565b9050600081511415610be2578192505050610c25565b600082511115610c17578082604051602001610bff929190612499565b60405160208183030381529060405292505050610c25565b610c20846113f0565b925050505b919050565b6000600560008473ffffffffffffffffffffffffffffffffffffffff1673ffffffffffffffffffffffffffffffffffffffff16815260200190815260200160002060008373ffffffffffffffffffffffffffffffffffffffff1673ffffffffffffffffffffffffffffffffffffffff16815260200190815260200160002060009054906101000a900460ff16905092915050565b610d5481604051602401610cd2919061253f565b6040516020818303038152906040527f41304fac000000000000000000000000000000000000000000000000000000007bffffffffffffffffffffffffffffffffffffffffffffffffffffffff19166020820180517bffffffffffffffffffffffffffffffffffffffffffffffffffffffff8381831617835250505050611497565b50565b60007f01ffc9a7000000000000000000000000000000000000000000000000000000007bffffffffffffffffffffffffffffffffffffffffffffffffffffffff1916827bffffffffffffffffffffffffffffffffffffffffffffffffffffffff1916149050919050565b60008073ffffffffffffffffffffffffffffffffffffffff166002600084815260200190815260200160002060009054906101000a900473ffffffffffffffffffffffffffffffffffffffff1673ffffffffffffffffffffffffffffffffffffffff1614159050919050565b600033905090565b816004600083815260200190815260200160002060006101000a81548173ffffffffffffffffffffffffffffffffffffffff021916908373ffffffffffffffffffffffffffffffffffffffff160217905550808273ffffffffffffffffffffffffffffffffffffffff16610ea8836106f9565b73ffffffffffffffffffffffffffffffffffffffff167f8c5be1e5ebec7d5bd14f71427d1e84f3dd0314c0f7b2291e5b200ac8c7c3b92560405160405180910390a45050565b600081600001549050919050565b610f168282604051806020016040528060008152506114c0565b5050565b610f2382610dc1565b610f62576040517f08c379a0000000000000000000000000000000000000000000000000000000008152600401610f599061269f565b60405180910390fd5b80600660008481526020019081526020016000209080519060200190610f89929190611a45565b505050565b611028838383604051602401610fa693929190612561565b6040516020818303038152906040527fe3849f79000000000000000000000000000000000000000000000000000000007bffffffffffffffffffffffffffffffffffffffffffffffffffffffff19166020820180517bffffffffffffffffffffffffffffffffffffffffffffffffffffffff8381831617835250505050611497565b505050565b6001816000016000828254019250508190555050565b600061104e82610dc1565b61108d576040517f08c379a00000000000000000000000000000000000000000000000000000000081526004016110849061261f565b60405180910390fd5b6000611098836106f9565b90508073ffffffffffffffffffffffffffffffffffffffff168473ffffffffffffffffffffffffffffffffffffffff16148061110757508373ffffffffffffffffffffffffffffffffffffffff166110ef84610455565b73ffffffffffffffffffffffffffffffffffffffff16145b8061111857506111178185610c2a565b5b91505092915050565b8273ffffffffffffffffffffffffffffffffffffffff16611141826106f9565b73ffffffffffffffffffffffffffffffffffffffff1614611197576040517f08c379a000000000000000000000000000000000000000000000000000000000815260040161118e9061271f565b60405180910390fd5b600073ffffffffffffffffffffffffffffffffffffffff168273ffffffffffffffffffffffffffffffffffffffff161415611207576040517f08c379a00000000000000000000000000000000000000000000000000000000081526004016111fe906125df565b60405180910390fd5b61121283838361151b565b61121d600082610e35565b6001600360008573ffffffffffffffffffffffffffffffffffffffff1673ffffffffffffffffffffffffffffffffffffffff168152602001908152602001600020600082825461126d91906128e5565b925050819055506001600360008473ffffffffffffffffffffffffffffffffffffffff1673ffffffffffffffffffffffffffffffffffffffff16815260200190815260200160002060008282546112c4919061285e565b92505081905550816002600083815260200190815260200160002060006101000a81548173ffffffffffffffffffffffffffffffffffffffff021916908373ffffffffffffffffffffffffffffffffffffffff160217905550808273ffffffffffffffffffffffffffffffffffffffff168473ffffffffffffffffffffffffffffffffffffffff167fddf252ad1be2c89b69c2b068fc378daa952ba7f163c4a11628f55a4df523b3ef60405160405180910390a4505050565b611388848484611121565b61139484848484611520565b6113d3576040517f08c379a00000000000000000000000000000000000000000000000000000000081526004016113ca9061259f565b60405180910390fd5b50505050565b606060405180602001604052806000815250905090565b60606113fb82610dc1565b61143a576040517f08c379a00000000000000000000000000000000000000000000000000000000081526004016114319061273f565b60405180910390fd5b60006114446113d9565b90506000815111611464576040518060200160405280600081525061148f565b8061146e846116b7565b60405160200161147f929190612499565b6040516020818303038152906040525b915050919050565b60008151905060006a636f6e736f6c652e6c6f679050602083016000808483855afa5050505050565b6114ca8383611864565b6114d76000848484611520565b611516576040517f08c379a000000000000000000000000000000000000000000000000000000000815260040161150d9061259f565b60405180910390fd5b505050565b505050565b60006115418473ffffffffffffffffffffffffffffffffffffffff16611a32565b156116aa578373ffffffffffffffffffffffffffffffffffffffff1663150b7a0261156a610e2d565b8786866040518563ffffffff1660e01b815260040161158c94939291906124d8565b602060405180830381600087803b1580156115a657600080fd5b505af19250505080156115d757506040513d601f19601f820116820180604052508101906115d49190611d89565b60015b61165a573d8060008114611607576040519150601f19603f3d011682016040523d82523d6000602084013e61160c565b606091505b50600081511415611652576040517f08c379a00000000000000000000000000000000000000000000000000000000081526004016116499061259f565b60405180910390fd5b805181602001fd5b63150b7a0260e01b7bffffffffffffffffffffffffffffffffffffffffffffffffffffffff1916817bffffffffffffffffffffffffffffffffffffffffffffffffffffffff1916149150506116af565b600190505b949350505050565b606060008214156116ff576040518060400160405280600181526020017f3000000000000000000000000000000000000000000000000000000000000000815250905061185f565b600082905060005b6000821461173157808061171a90612a01565b915050600a8261172a91906128b4565b9150611707565b60008167ffffffffffffffff811115611773577f4e487b7100000000000000000000000000000000000000000000000000000000600052604160045260246000fd5b6040519080825280601f01601f1916602001820160405280156117a55781602001600182028036833780820191505090505b5090505b60008514611858576001826117be91906128e5565b9150600a856117cd9190612a4a565b60306117d9919061285e565b60f81b818381518110611815577f4e487b7100000000000000000000000000000000000000000000000000000000600052603260045260246000fd5b60200101907effffffffffffffffffffffffffffffffffffffffffffffffffffffffffffff1916908160001a905350600a8561185191906128b4565b94506117a9565b8093505050505b919050565b600073ffffffffffffffffffffffffffffffffffffffff168273ffffffffffffffffffffffffffffffffffffffff1614156118d4576040517f08c379a00000000000000000000000000000000000000000000000000000000081526004016118cb906126bf565b60405180910390fd5b6118dd81610dc1565b1561191d576040517f08c379a0000000000000000000000000000000000000000000000000000000008152600401611914906125bf565b60405180910390fd5b6119296000838361151b565b6001600360008473ffffffffffffffffffffffffffffffffffffffff1673ffffffffffffffffffffffffffffffffffffffff1681526020019081526020016000206000828254611979919061285e565b92505081905550816002600083815260200190815260200160002060006101000a81548173ffffffffffffffffffffffffffffffffffffffff021916908373ffffffffffffffffffffffffffffffffffffffff160217905550808273ffffffffffffffffffffffffffffffffffffffff16600073ffffffffffffffffffffffffffffffffffffffff167fddf252ad1be2c89b69c2b068fc378daa952ba7f163c4a11628f55a4df523b3ef60405160405180910390a45050565b600080823b905060008111915050919050565b828054611a51906129cf565b90600052602060002090601f016020900481019282611a735760008555611aba565b82601f10611a8c57805160ff1916838001178555611aba565b82800160010185558215611aba579182015b82811115611ab9578251825591602001919060010190611a9e565b5b509050611ac79190611acb565b5090565b5b80821115611ae4576000816000905550600101611acc565b5090565b6000611afb611af6846127eb565b6127ba565b905082815260208101848484011115611b1357600080fd5b611b1e84828561298d565b509392505050565b600081359050611b3581612b48565b92915050565b600081359050611b4a81612b5f565b92915050565b600081359050611b5f81612b76565b92915050565b600081519050611b7481612b76565b92915050565b600082601f830112611b8b57600080fd5b8135611b9b848260208601611ae8565b91505092915050565b600081359050611bb381612b8d565b92915050565b600060208284031215611bcb57600080fd5b6000611bd984828501611b26565b91505092915050565b60008060408385031215611bf557600080fd5b6000611c0385828601611b26565b9250506020611c1485828601611b26565b9150509250929050565b600080600060608486031215611c3357600080fd5b6000611c4186828701611b26565b9350506020611c5286828701611b26565b9250506040611c6386828701611ba4565b9150509250925092565b60008060008060808587031215611c8357600080fd5b6000611c9187828801611b26565b9450506020611ca287828801611b26565b9350506040611cb387828801611ba4565b925050606085013567ffffffffffffffff811115611cd057600080fd5b611cdc87828801611b7a565b91505092959194509250565b60008060408385031215611cfb57600080fd5b6000611d0985828601611b26565b9250506020611d1a85828601611b3b565b9150509250929050565b60008060408385031215611d3757600080fd5b6000611d4585828601611b26565b9250506020611d5685828601611ba4565b9150509250929050565b600060208284031215611d7257600080fd5b6000611d8084828501611b50565b91505092915050565b600060208284031215611d9b57600080fd5b6000611da984828501611b65565b91505092915050565b600060208284031215611dc457600080fd5b6000611dd284828501611ba4565b91505092915050565b611de481612919565b82525050565b611df38161292b565b82525050565b6000611e048261281b565b611e0e8185612831565b9350611e1e81856020860161299c565b611e2781612b37565b840191505092915050565b6000611e3d82612826565b611e478185612842565b9350611e5781856020860161299c565b611e6081612b37565b840191505092915050565b6000611e7682612826565b611e808185612853565b9350611e9081856020860161299c565b80840191505092915050565b6000611ea9603283612842565b91507f4552433732313a207472616e7366657220746f206e6f6e20455243373231526560008301527f63656976657220696d706c656d656e74657200000000000000000000000000006020830152604082019050919050565b6000611f0f601c83612842565b91507f4552433732313a20746f6b656e20616c7265616479206d696e746564000000006000830152602082019050919050565b6000611f4f602483612842565b91507f4552433732313a207472616e7366657220746f20746865207a65726f2061646460008301527f72657373000000000000000000000000000000000000000000000000000000006020830152604082019050919050565b6000611fb5601983612842565b91507f4552433732313a20617070726f766520746f2063616c6c6572000000000000006000830152602082019050919050565b6000611ff5602c83612842565b91507f4552433732313a206f70657261746f7220717565727920666f72206e6f6e657860008301527f697374656e7420746f6b656e00000000000000000000000000000000000000006020830152604082019050919050565b600061205b603883612842565b91507f4552433732313a20617070726f76652063616c6c6572206973206e6f74206f7760008301527f6e6572206e6f7220617070726f76656420666f7220616c6c00000000000000006020830152604082019050919050565b60006120c1602a83612842565b91507f4552433732313a2062616c616e636520717565727920666f7220746865207a6560008301527f726f2061646472657373000000000000000000000000000000000000000000006020830152604082019050919050565b6000612127602983612842565b91507f4552433732313a206f776e657220717565727920666f72206e6f6e657869737460008301527f656e7420746f6b656e00000000000000000000000000000000000000000000006020830152604082019050919050565b600061218d602e83612842565b91507f45524337323155524953746f726167653a2055524920736574206f66206e6f6e60008301527f6578697374656e7420746f6b656e0000000000000000000000000000000000006020830152604082019050919050565b60006121f3602083612842565b91507f4552433732313a206d696e7420746f20746865207a65726f20616464726573736000830152602082019050919050565b6000612233603183612842565b91507f45524337323155524953746f726167653a2055524920717565727920666f722060008301527f6e6f6e6578697374656e7420746f6b656e0000000000000000000000000000006020830152604082019050919050565b6000612299602c83612842565b91507f4552433732313a20617070726f76656420717565727920666f72206e6f6e657860008301527f697374656e7420746f6b656e00000000000000000000000000000000000000006020830152604082019050919050565b60006122ff602983612842565b91507f4552433732313a207472616e73666572206f6620746f6b656e2074686174206960008301527f73206e6f74206f776e00000000000000000000000000000000000000000000006020830152604082019050919050565b6000612365602f83612842565b91507f4552433732314d657461646174613a2055524920717565727920666f72206e6f60008301527f6e6578697374656e7420746f6b656e00000000000000000000000000000000006020830152604082019050919050565b60006123cb602183612842565b91507f4552433732313a20617070726f76616c20746f2063757272656e74206f776e6560008301527f72000000000000000000000000000000000000000000000000000000000000006020830152604082019050919050565b6000612431603183612842565b91507f4552433732313a207472616e736665722063616c6c6572206973206e6f74206f60008301527f776e6572206e6f7220617070726f7665640000000000000000000000000000006020830152604082019050919050565b61249381612983565b82525050565b60006124a58285611e6b565b91506124b18284611e6b565b91508190509392505050565b60006020820190506124d26000830184611ddb565b92915050565b60006080820190506124ed6000830187611ddb565b6124fa6020830186611ddb565b612507604083018561248a565b81810360608301526125198184611df9565b905095945050505050565b60006020820190506125396000830184611dea565b92915050565b600060208201905081810360008301526125598184611e32565b905092915050565b6000606082019050818103600083015261257b8186611e32565b905061258a602083018561248a565b6125976040830184611ddb565b949350505050565b600060208201905081810360008301526125b881611e9c565b9050919050565b600060208201905081810360008301526125d881611f02565b9050919050565b600060208201905081810360008301526125f881611f42565b9050919050565b6000602082019050818103600083015261261881611fa8565b9050919050565b6000602082019050818103600083015261263881611fe8565b9050919050565b600060208201905081810360008301526126588161204e565b9050919050565b60006020820190508181036000830152612678816120b4565b9050919050565b600060208201905081810360008301526126988161211a565b9050919050565b600060208201905081810360008301526126b881612180565b9050919050565b600060208201905081810360008301526126d8816121e6565b9050919050565b600060208201905081810360008301526126f881612226565b9050919050565b600060208201905081810360008301526127188161228c565b9050919050565b60006020820190508181036000830152612738816122f2565b9050919050565b6000602082019050818103600083015261275881612358565b9050919050565b60006020820190508181036000830152612778816123be565b9050919050565b6000602082019050818103600083015261279881612424565b9050919050565b60006020820190506127b4600083018461248a565b92915050565b6000604051905081810181811067ffffffffffffffff821117156127e1576127e0612b08565b5b8060405250919050565b600067ffffffffffffffff82111561280657612805612b08565b5b601f19601f8301169050602081019050919050565b600081519050919050565b600081519050919050565b600082825260208201905092915050565b600082825260208201905092915050565b600081905092915050565b600061286982612983565b915061287483612983565b9250827fffffffffffffffffffffffffffffffffffffffffffffffffffffffffffffffff038211156128a9576128a8612a7b565b5b828201905092915050565b60006128bf82612983565b91506128ca83612983565b9250826128da576128d9612aaa565b5b828204905092915050565b60006128f082612983565b91506128fb83612983565b92508282101561290e5761290d612a7b565b5b828203905092915050565b600061292482612963565b9050919050565b60008115159050919050565b60007fffffffff0000000000000000000000000000000000000000000000000000000082169050919050565b600073ffffffffffffffffffffffffffffffffffffffff82169050919050565b6000819050919050565b82818337600083830152505050565b60005b838110156129ba57808201518184015260208101905061299f565b838111156129c9576000848401525b50505050565b600060028204905060018216806129e757607f821691505b602082108114156129fb576129fa612ad9565b5b50919050565b6000612a0c82612983565b91507fffffffffffffffffffffffffffffffffffffffffffffffffffffffffffffffff821415612a3f57612a3e612a7b565b5b600182019050919050565b6000612a5582612983565b9150612a6083612983565b925082612a7057612a6f612aaa565b5b828206905092915050565b7f4e487b7100000000000000000000000000000000000000000000000000000000600052601160045260246000fd5b7f4e487b7100000000000000000000000000000000000000000000000000000000600052601260045260246000fd5b7f4e487b7100000000000000000000000000000000000000000000000000000000600052602260045260246000fd5b7f4e487b7100000000000000000000000000000000000000000000000000000000600052604160045260246000fd5b6000601f19601f8301169050919050565b612b5181612919565b8114612b5c57600080fd5b50565b612b688161292b565b8114612b7357600080fd5b50565b612b7f81612937565b8114612b8a57600080fd5b50565b612b9681612983565b8114612ba157600080fd5b5056fe416e204e465420772f20494420257320686173206265656e206d696e74656420746f202573a264697066735822122054188e9d5b46bcbdf705be59e83f536cce8f74a1ac3ccd6210ebfd9deceaec7c64736f6c63430008000033",
  "linkReferences": {},
  "deployedLinkReferences": {}
}