{
    "_format": "hh-sol-artifact-1",
    "contractName": "GenerativeCocktail",
    "sourceName": "contracts/GenerativeCocktail.sol",
    "abi": [
        {
            "inputs": [],
            "stateMutability": "nonpayable",
            "type": "constructor"
        },
        {
            "anonymous": false,
            "inputs": [
                {
                    "indexed": true,
                    "internalType": "address",
                    "name": "owner",
                    "type": "address"
                },
                {
                    "indexed": true,
                    "internalType": "address",
                    "name": "approved",
                    "type": "address"
                },
                {
                    "indexed": true,
                    "internalType": "uint256",
                    "name": "tokenId",
                    "type": "uint256"
                }
            ],
            "name": "Approval",
            "type": "event"
        },
        {
            "anonymous": false,
            "inputs": [
                {
                    "indexed": true,
                    "internalType": "address",
                    "name": "owner",
                    "type": "address"
                },
                {
                    "indexed": true,
                    "internalType": "address",
                    "name": "operator",
                    "type": "address"
                },
                {
                    "indexed": false,
                    "internalType": "bool",
                    "name": "approved",
                    "type": "bool"
                }
            ],
            "name": "ApprovalForAll",
            "type": "event"
        },
        {
            "anonymous": false,
            "inputs": [
                {
                    "indexed": true,
                    "internalType": "address",
                    "name": "from",
                    "type": "address"
                },
                {
                    "indexed": true,
                    "internalType": "address",
                    "name": "to",
                    "type": "address"
                },
                {
                    "indexed": true,
                    "internalType": "uint256",
                    "name": "tokenId",
                    "type": "uint256"
                }
            ],
            "name": "Transfer",
            "type": "event"
        },
        {
            "anonymous": false,
            "inputs": [
                {
                    "indexed": false,
                    "internalType": "address",
                    "name": "sender",
                    "type": "address"
                },
                {
                    "indexed": false,
                    "internalType": "uint256",
                    "name": "tokenId",
                    "type": "uint256"
                }
            ],
            "name": "nftMinted",
            "type": "event"
        },
        {
            "inputs": [
                {
                    "internalType": "address",
                    "name": "to",
                    "type": "address"
                },
                {
                    "internalType": "uint256",
                    "name": "tokenId",
                    "type": "uint256"
                }
            ],
            "name": "approve",
            "outputs": [],
            "stateMutability": "nonpayable",
            "type": "function"
        },
        {
            "inputs": [
                {
                    "internalType": "address",
                    "name": "owner",
                    "type": "address"
                }
            ],
            "name": "balanceOf",
            "outputs": [
                {
                    "internalType": "uint256",
                    "name": "",
                    "type": "uint256"
                }
            ],
            "stateMutability": "view",
            "type": "function"
        },
        {
            "inputs": [
                {
                    "internalType": "uint256",
                    "name": "tokenId",
                    "type": "uint256"
                }
            ],
            "name": "createSVG",
            "outputs": [
                {
                    "internalType": "string",
                    "name": "",
                    "type": "string"
                }
            ],
            "stateMutability": "view",
            "type": "function"
        },
        {
            "inputs": [
                {
                    "internalType": "uint256",
                    "name": "tokenId",
                    "type": "uint256"
                }
            ],
            "name": "getApproved",
            "outputs": [
                {
                    "internalType": "address",
                    "name": "",
                    "type": "address"
                }
            ],
            "stateMutability": "view",
            "type": "function"
        },
        {
            "inputs": [],
            "name": "getMintCount",
            "outputs": [
                {
                    "internalType": "uint256",
                    "name": "",
                    "type": "uint256"
                }
            ],
            "stateMutability": "view",
            "type": "function"
        },
        {
            "inputs": [
                {
                    "internalType": "address",
                    "name": "owner",
                    "type": "address"
                },
                {
                    "internalType": "address",
                    "name": "operator",
                    "type": "address"
                }
            ],
            "name": "isApprovedForAll",
            "outputs": [
                {
                    "internalType": "bool",
                    "name": "",
                    "type": "bool"
                }
            ],
            "stateMutability": "view",
            "type": "function"
        },
        {
            "inputs": [],
            "name": "maxTokens",
            "outputs": [
                {
                    "internalType": "uint16",
                    "name": "",
                    "type": "uint16"
                }
            ],
            "stateMutability": "view",
            "type": "function"
        },
        {
            "inputs": [],
            "name": "mintNFT",
            "outputs": [],
            "stateMutability": "nonpayable",
            "type": "function"
        },
        {
            "inputs": [],
            "name": "name",
            "outputs": [
                {
                    "internalType": "string",
                    "name": "",
                    "type": "string"
                }
            ],
            "stateMutability": "view",
            "type": "function"
        },
        {
            "inputs": [
                {
                    "internalType": "uint256",
                    "name": "tokenId",
                    "type": "uint256"
                }
            ],
            "name": "ownerOf",
            "outputs": [
                {
                    "internalType": "address",
                    "name": "",
                    "type": "address"
                }
            ],
            "stateMutability": "view",
            "type": "function"
        },
        {
            "inputs": [
                {
                    "internalType": "string[]",
                    "name": "arr",
                    "type": "string[]"
                },
                {
                    "internalType": "uint256",
                    "name": "tokenId",
                    "type": "uint256"
                }
            ],
            "name": "pickRandomWord",
            "outputs": [
                {
                    "internalType": "string",
                    "name": "",
                    "type": "string"
                }
            ],
            "stateMutability": "pure",
            "type": "function"
        },
        {
            "inputs": [
                {
                    "internalType": "address",
                    "name": "from",
                    "type": "address"
                },
                {
                    "internalType": "address",
                    "name": "to",
                    "type": "address"
                },
                {
                    "internalType": "uint256",
                    "name": "tokenId",
                    "type": "uint256"
                }
            ],
            "name": "safeTransferFrom",
            "outputs": [],
            "stateMutability": "nonpayable",
            "type": "function"
        },
        {
            "inputs": [
                {
                    "internalType": "address",
                    "name": "from",
                    "type": "address"
                },
                {
                    "internalType": "address",
                    "name": "to",
                    "type": "address"
                },
                {
                    "internalType": "uint256",
                    "name": "tokenId",
                    "type": "uint256"
                },
                {
                    "internalType": "bytes",
                    "name": "_data",
                    "type": "bytes"
                }
            ],
            "name": "safeTransferFrom",
            "outputs": [],
            "stateMutability": "nonpayable",
            "type": "function"
        },
        {
            "inputs": [
                {
                    "internalType": "address",
                    "name": "operator",
                    "type": "address"
                },
                {
                    "internalType": "bool",
                    "name": "approved",
                    "type": "bool"
                }
            ],
            "name": "setApprovalForAll",
            "outputs": [],
            "stateMutability": "nonpayable",
            "type": "function"
        },
        {
            "inputs": [
                {
                    "internalType": "bytes4",
                    "name": "interfaceId",
                    "type": "bytes4"
                }
            ],
            "name": "supportsInterface",
            "outputs": [
                {
                    "internalType": "bool",
                    "name": "",
                    "type": "bool"
                }
            ],
            "stateMutability": "view",
            "type": "function"
        },
        {
            "inputs": [],
            "name": "symbol",
            "outputs": [
                {
                    "internalType": "string",
                    "name": "",
                    "type": "string"
                }
            ],
            "stateMutability": "view",
            "type": "function"
        },
        {
            "inputs": [
                {
                    "internalType": "uint256",
                    "name": "tokenId",
                    "type": "uint256"
                }
            ],
            "name": "tokenURI",
            "outputs": [
                {
                    "internalType": "string",
                    "name": "",
                    "type": "string"
                }
            ],
            "stateMutability": "view",
            "type": "function"
        },
        {
            "inputs": [
                {
                    "internalType": "address",
                    "name": "from",
                    "type": "address"
                },
                {
                    "internalType": "address",
                    "name": "to",
                    "type": "address"
                },
                {
                    "internalType": "uint256",
                    "name": "tokenId",
                    "type": "uint256"
                }
            ],
            "name": "transferFrom",
            "outputs": [],
            "stateMutability": "nonpayable",
            "type": "function"
        }
    ],
    "bytecode": "0x6080604052604051806101400160405280610101815260200162005a1b6101019139600890805190602001906200003892919062001312565b506040518061020001604052806040518060400160405280600781526020017f576869736b65790000000000000000000000000000000000000000000000000081525081526020016040518060400160405280600381526020017f52756d000000000000000000000000000000000000000000000000000000000081525081526020016040518060400160405280600381526020017f47696e000000000000000000000000000000000000000000000000000000000081525081526020016040518060400160405280600581526020017f566f646b6100000000000000000000000000000000000000000000000000000081525081526020016040518060400160405280600681526020017f4d657a63616c000000000000000000000000000000000000000000000000000081525081526020016040518060400160405280600781526020017f54657175696c610000000000000000000000000000000000000000000000000081525081526020016040518060400160405280600681526020017f53636f746368000000000000000000000000000000000000000000000000000081525081526020016040518060400160405280600681526020017f436f676e6163000000000000000000000000000000000000000000000000000081525081526020016040518060400160405280600781526020017f47656e657665720000000000000000000000000000000000000000000000000081525081526020016040518060400160405280600381526020017f527965000000000000000000000000000000000000000000000000000000000081525081526020016040518060400160405280600781526020017f426f7572626f6e0000000000000000000000000000000000000000000000000081525081526020016040518060400160405280600b81526020017f4f6c6420546f6d2047696e00000000000000000000000000000000000000000081525081526020016040518060400160405280600c81526020017f4170706c65204272616e6479000000000000000000000000000000000000000081525081526020016040518060400160405280600c81526020017f497269736820576869736b79000000000000000000000000000000000000000081525081526020016040518060400160405280601081526020017f4a6170616e65736520576869736b65790000000000000000000000000000000081525081526020016040518060400160405280600781526020017f4361636861636100000000000000000000000000000000000000000000000000815250815250600990601062000405929190620013a3565b50604051806102c001604052806040518060400160405280600781526020017f43616d706172690000000000000000000000000000000000000000000000000081525081526020016040518060400160405280601081526020017f477265656e20436861727472657573650000000000000000000000000000000081525081526020016040518060400160405280601181526020017f59656c6c6f77204368617274726575736500000000000000000000000000000081525081526020016040518060400160405280600e81526020017f4368657272792048656572696e6700000000000000000000000000000000000081525081526020016040518060400160405280600e81526020017f5377656574205665726d6f75746800000000000000000000000000000000000081525081526020016040518060400160405280600c81526020017f447279205665726d6f757468000000000000000000000000000000000000000081525081526020016040518060400160405280600e81526020017f426c616e63205665726d6f75746800000000000000000000000000000000000081525081526020016040518060400160405280600581526020017f4c656d6f6e00000000000000000000000000000000000000000000000000000081525081526020016040518060400160405280600481526020017f4c696d650000000000000000000000000000000000000000000000000000000081525081526020016040518060400160405280600581526020017f43796e617200000000000000000000000000000000000000000000000000000081525081526020016040518060400160405280601081526020017f436f6363686920416d65726963616e6f0000000000000000000000000000000081525081526020016040518060400160405280600d81526020017f4665726e6574204272616e63610000000000000000000000000000000000000081525081526020016040518060400160405280600a81526020017f477261706566727569740000000000000000000000000000000000000000000081525081526020016040518060400160405280600c81526020017f4f72616e6765204a75696365000000000000000000000000000000000000000081525081526020016040518060400160405280600681526020017f417065726f6c000000000000000000000000000000000000000000000000000081525081526020016040518060400160405280601281526020017f416d6f6e74696c6c61646f20536865727279000000000000000000000000000081525081526020016040518060400160405280600481526020017f506f72740000000000000000000000000000000000000000000000000000000081525081526020016040518060400160405280600f81526020017f426c61636b2053747261702052756d000000000000000000000000000000000081525081526020016040518060400160405280600981526020017f5175696e7175696e61000000000000000000000000000000000000000000000081525081526020016040518060400160405280601281526020017f41707269636f742045617520646520566965000000000000000000000000000081525081526020016040518060400160405280600581526020017f437265616d00000000000000000000000000000000000000000000000000000081525081526020016040518060400160405280600981526020017f57686f6c65204567670000000000000000000000000000000000000000000000815250815250600a906016620009349291906200140a565b506040518061024001604052806040518060400160405280600581526020017f537567617200000000000000000000000000000000000000000000000000000081525081526020016040518060400160405280600a81526020017f4d617261736368696e6f0000000000000000000000000000000000000000000081525081526020016040518060400160405280600e81526020017f4f72616e6765204375726163616f00000000000000000000000000000000000081525081526020016040518060400160405280600f81526020017f4372656d65206465204d656e746865000000000000000000000000000000000081525081526020016040518060400160405280600b81526020017f42656e6564696374696e6500000000000000000000000000000000000000000081525081526020016040518060400160405280601481526020017f506564726f2058696d656e657a2053686572727900000000000000000000000081525081526020016040518060400160405280600a81526020017f57617465726d656c6f6e0000000000000000000000000000000000000000000081525081526020016040518060400160405280600981526020017f4772656e6164696e65000000000000000000000000000000000000000000000081525081526020016040518060400160405280600581526020017f416761766500000000000000000000000000000000000000000000000000000081525081526020016040518060400160405280600481526020017f536f64610000000000000000000000000000000000000000000000000000000081525081526020016040518060400160405280600b81526020017f4d61706c6520537972757000000000000000000000000000000000000000000081525081526020016040518060400160405280600581526020017f486f6e657900000000000000000000000000000000000000000000000000000081525081526020016040518060400160405280600c81526020017f47696e676572205379727570000000000000000000000000000000000000000081525081526020016040518060400160405280600681526020017f4f7267656174000000000000000000000000000000000000000000000000000081525081526020016040518060400160405280600f81526020017f526173706265727279205379727570000000000000000000000000000000000081525081526020016040518060400160405280600d81526020017f4372656d65206465204d7572650000000000000000000000000000000000000081525081526020016040518060400160405280600e81526020017f4372656d6520646520436163616f00000000000000000000000000000000000081525081526020016040518060400160405280600581526020017f546f6e6963000000000000000000000000000000000000000000000000000000815250815250600b90601262000d7792919062001471565b506040518061028001604052806040518060400160405280600481526020017f4d696e740000000000000000000000000000000000000000000000000000000081525081526020016040518060400160405280600881526020017f43696e6e616d6f6e00000000000000000000000000000000000000000000000081525081526020016040518060400160405280600881526020017f526f73656d61727900000000000000000000000000000000000000000000000081525081526020016040518060400160405280601181526020017f416e676f7374757261204269747465727300000000000000000000000000000081525081526020016040518060400160405280600e81526020017f4f72616e6765204269747465727300000000000000000000000000000000000081525081526020016040518060400160405280600981526020017f436163616f204e6962000000000000000000000000000000000000000000000081525081526020016040518060400160405280600b81526020017f4c617073616e672054656100000000000000000000000000000000000000000081525081526020016040518060400160405280600981526020017f477265656e20546561000000000000000000000000000000000000000000000081525081526020016040518060400160405280600d81526020017f4561726c2047726579205465610000000000000000000000000000000000000081525081526020016040518060400160405280600481526020017f536167650000000000000000000000000000000000000000000000000000000081525081526020016040518060400160405280600681526020017f4e75746d6567000000000000000000000000000000000000000000000000000081525081526020016040518060400160405280600881526020017f42657267616d6f7400000000000000000000000000000000000000000000000081525081526020016040518060400160405280600881526020017f416273696e74686500000000000000000000000000000000000000000000000081525081526020016040518060400160405280601181526020017f4372656d652064652056696f6c6574746500000000000000000000000000000081525081526020016040518060400160405280600b81526020017f436f66666565204265616e00000000000000000000000000000000000000000081525081526020016040518060400160405280600781526020017f56616e696c6c610000000000000000000000000000000000000000000000000081525081526020016040518060400160405280601381526020017f4f72616e676520466c6f7765722057617465720000000000000000000000000081525081526020016040518060400160405280600881526020017f416c6c737069636500000000000000000000000000000000000000000000000081525081526020016040518060400160405280600e81526020017f537061726b6c696e672057696e6500000000000000000000000000000000000081525081526020016040518060400160405280600481526020017f53616c7400000000000000000000000000000000000000000000000000000000815250815250600c90601462001230929190620014d8565b503480156200123e57600080fd5b506040518060400160405280601481526020017f47656e6572617469766520436f636b7461696c730000000000000000000000008152506040518060400160405280600481526020017f434b544c000000000000000000000000000000000000000000000000000000008152508160009080519060200190620012c392919062001312565b508060019080519060200190620012dc92919062001312565b505050620012f66007620012fc60201b62001bdd1760201c565b62001631565b6001816000016000828254019250508190555050565b8280546200132090620015cc565b90600052602060002090601f01602090048101928262001344576000855562001390565b82601f106200135f57805160ff191683800117855562001390565b8280016001018555821562001390579182015b828111156200138f57825182559160200191906001019062001372565b5b5090506200139f91906200153f565b5090565b828054828255906000526020600020908101928215620013f7579160200282015b82811115620013f6578251829080519060200190620013e592919062001312565b5091602001919060010190620013c4565b5b5090506200140691906200155e565b5090565b8280548282559060005260206000209081019282156200145e579160200282015b828111156200145d5782518290805190602001906200144c92919062001312565b50916020019190600101906200142b565b5b5090506200146d91906200155e565b5090565b828054828255906000526020600020908101928215620014c5579160200282015b82811115620014c4578251829080519060200190620014b392919062001312565b509160200191906001019062001492565b5b509050620014d491906200155e565b5090565b8280548282559060005260206000209081019282156200152c579160200282015b828111156200152b5782518290805190602001906200151a92919062001312565b5091602001919060010190620014f9565b5b5090506200153b91906200155e565b5090565b5b808211156200155a57600081600090555060010162001540565b5090565b5b8082111562001582576000818162001578919062001586565b506001016200155f565b5090565b5080546200159490620015cc565b6000825580601f10620015a85750620015c9565b601f016020900490600052602060002090810190620015c891906200153f565b5b50565b60006002820490506001821680620015e557607f821691505b60208210811415620015fc57620015fb62001602565b5b50919050565b7f4e487b7100000000000000000000000000000000000000000000000000000000600052602260045260246000fd5b6143da80620016416000396000f3fe608060405234801561001057600080fd5b50600436106101165760003560e01c80636352211e116100a2578063a22cb46511610071578063a22cb465146102f3578063b88d4fde1461030f578063c87b56dd1461032b578063e83157421461035b578063e985e9c51461037957610116565b80636352211e1461025757806370a08231146102875780638fc3b549146102b757806395d89b41146102d557610116565b806314f710fe116100e957806314f710fe146101b557806323b872dd146101bf57806342842e0e146101db5780634e4007f0146101f75780634ebb5e731461022757610116565b806301ffc9a71461011b57806306fdde031461014b578063081812fc14610169578063095ea7b314610199575b600080fd5b61013560048036038101906101309190612fbc565b6103a9565b6040516101429190613b1f565b60405180910390f35b61015361048b565b6040516101609190613b3a565b60405180910390f35b610183600480360381019061017e919061300e565b61051d565b6040516101909190613a8f565b60405180910390f35b6101b360048036038101906101ae9190612f2c565b6105a2565b005b6101bd6106ba565b005b6101d960048036038101906101d49190612e26565b6108aa565b005b6101f560048036038101906101f09190612e26565b61090a565b005b610211600480360381019061020c919061300e565b61092a565b60405161021e9190613b3a565b60405180910390f35b610241600480360381019061023c9190612f68565b611523565b60405161024e9190613b3a565b60405180910390f35b610271600480360381019061026c919061300e565b6115f5565b60405161027e9190613a8f565b60405180910390f35b6102a1600480360381019061029c9190612dc1565b6116a7565b6040516102ae9190613dd5565b60405180910390f35b6102bf61175f565b6040516102cc9190613dd5565b60405180910390f35b6102dd61177c565b6040516102ea9190613b3a565b60405180910390f35b61030d60048036038101906103089190612ef0565b61180e565b005b61032960048036038101906103249190612e75565b61198f565b005b6103456004803603810190610340919061300e565b6119f1565b6040516103529190613b3a565b60405180910390f35b610363611b43565b6040516103709190613dba565b60405180910390f35b610393600480360381019061038e9190612dea565b611b49565b6040516103a09190613b1f565b60405180910390f35b60007f80ac58cd000000000000000000000000000000000000000000000000000000007bffffffffffffffffffffffffffffffffffffffffffffffffffffffff1916827bffffffffffffffffffffffffffffffffffffffffffffffffffffffff1916148061047457507f5b5e139f000000000000000000000000000000000000000000000000000000007bffffffffffffffffffffffffffffffffffffffffffffffffffffffff1916827bffffffffffffffffffffffffffffffffffffffffffffffffffffffff1916145b80610484575061048382611bf3565b5b9050919050565b60606000805461049a906140c9565b80601f01602080910402602001604051908101604052809291908181526020018280546104c6906140c9565b80156105135780601f106104e857610100808354040283529160200191610513565b820191906000526020600020905b8154815290600101906020018083116104f657829003601f168201915b5050505050905090565b600061052882611c5d565b610567576040517f08c379a000000000000000000000000000000000000000000000000000000000815260040161055e90613cfa565b60405180910390fd5b6004600083815260200190815260200160002060009054906101000a900473ffffffffffffffffffffffffffffffffffffffff169050919050565b60006105ad826115f5565b90508073ffffffffffffffffffffffffffffffffffffffff168373ffffffffffffffffffffffffffffffffffffffff16141561061e576040517f08c379a000000000000000000000000000000000000000000000000000000000815260040161061590613d7a565b60405180910390fd5b8073ffffffffffffffffffffffffffffffffffffffff1661063d611cc9565b73ffffffffffffffffffffffffffffffffffffffff16148061066c575061066b81610666611cc9565b611b49565b5b6106ab576040517f08c379a00000000000000000000000000000000000000000000000000000000081526004016106a290613c3a565b60405180910390fd5b6106b58383611cd1565b505050565b60006106c66007611d8a565b90506122b861ffff16811115610711576040517f08c379a000000000000000000000000000000000000000000000000000000000815260040161070890613d1a565b60405180910390fd5b600061071c8261092a565b9050600061072983611d98565b6040516020016107399190613a6d565b6040516020818303038152906040529050600061077e8261075985611f45565b60405160200161076a929190613a06565b604051602081830303815290604052611f45565b90506000816040516020016107939190613a4b565b60405160208183030381529060405290506107e26040518060400160405280601581526020017f0a2d2d2d2d2d2d2d2d2d2d2d2d2d2d2d2d2d2d2d2d00000000000000000000008152506120e4565b6107eb816120e4565b6108296040518060400160405280601581526020017f2d2d2d2d2d2d2d2d2d2d2d2d2d2d2d2d2d2d2d2d0a00000000000000000000008152506120e4565b610833338661217d565b61083d858261219b565b6108606040518060600160405280602581526020016142c760259139863361220f565b61086a6007611bdd565b7fbbedd439cfe8aa51324de58375e6ffccc4ac766d72b9aaeb8a0e4960923ea416338660405161089b929190613af6565b60405180910390a15050505050565b6108bb6108b5611cc9565b826122ae565b6108fa576040517f08c379a00000000000000000000000000000000000000000000000000000000081526004016108f190613d9a565b60405180910390fd5b61090583838361238c565b505050565b6109258383836040518060200160405280600081525061198f565b505050565b60606000610a096009805480602002602001604051908101604052809291908181526020016000905b828210156109ff578382906000526020600020018054610972906140c9565b80601f016020809104026020016040519081016040528092919081815260200182805461099e906140c9565b80156109eb5780601f106109c0576101008083540402835291602001916109eb565b820191906000526020600020905b8154815290600101906020018083116109ce57829003601f168201915b505050505081526020019060010190610953565b5050505084611523565b90506000610ae8600a805480602002602001604051908101604052809291908181526020016000905b82821015610ade578382906000526020600020018054610a51906140c9565b80601f0160208091040260200160405190810160405280929190818152602001828054610a7d906140c9565b8015610aca5780601f10610a9f57610100808354040283529160200191610aca565b820191906000526020600020905b815481529060010190602001808311610aad57829003601f168201915b505050505081526020019060010190610a32565b5050505085611523565b90506000610bc7600b805480602002602001604051908101604052809291908181526020016000905b82821015610bbd578382906000526020600020018054610b30906140c9565b80601f0160208091040260200160405190810160405280929190818152602001828054610b5c906140c9565b8015610ba95780601f10610b7e57610100808354040283529160200191610ba9565b820191906000526020600020905b815481529060010190602001808311610b8c57829003601f168201915b505050505081526020019060010190610b11565b5050505086611523565b90506000610ca6600c805480602002602001604051908101604052809291908181526020016000905b82821015610c9c578382906000526020600020018054610c0f906140c9565b80601f0160208091040260200160405190810160405280929190818152602001828054610c3b906140c9565b8015610c885780601f10610c5d57610100808354040283529160200191610c88565b820191906000526020600020905b815481529060010190602001808311610c6b57829003601f168201915b505050505081526020019060010190610bf0565b5050505087611523565b90506000610dac600c805480602002602001604051908101604052809291908181526020016000905b82821015610d7b578382906000526020600020018054610cee906140c9565b80601f0160208091040260200160405190810160405280929190818152602001828054610d1a906140c9565b8015610d675780601f10610d3c57610100808354040283529160200191610d67565b820191906000526020600020905b815481529060010190602001808311610d4a57829003601f168201915b505050505081526020019060010190610ccf565b505050506001600c80549050610d919190613fd1565b89610d9c9190614144565b89610da79190613ef0565b611523565b9050610db6612b36565b60088054610dc3906140c9565b80601f0160208091040260200160405190810160405280929190818152602001828054610def906140c9565b8015610e3c5780601f10610e1157610100808354040283529160200191610e3c565b820191906000526020600020905b815481529060010190602001808311610e1f57829003601f168201915b5050505050816000600b8110610e7b577f4e487b7100000000000000000000000000000000000000000000000000000000600052603260045260246000fd5b602002018190525085604051602001610e9491906139e4565b604051602081830303815290604052816001600b8110610edd577f4e487b7100000000000000000000000000000000000000000000000000000000600052603260045260246000fd5b602002018190525060405180606001604052806028815260200161437d60289139816002600b8110610f38577f4e487b7100000000000000000000000000000000000000000000000000000000600052603260045260246000fd5b602002018190525084604051602001610f5191906139e4565b604051602081830303815290604052816003600b8110610f9a577f4e487b7100000000000000000000000000000000000000000000000000000000600052603260045260246000fd5b602002018190525060405180606001604052806028815260200161429f60289139816004600b8110610ff5577f4e487b7100000000000000000000000000000000000000000000000000000000600052603260045260246000fd5b60200201819052508360405160200161100e91906139e4565b604051602081830303815290604052816005600b8110611057577f4e487b7100000000000000000000000000000000000000000000000000000000600052603260045260246000fd5b60200201819052506040518060600160405280602881526020016142ec60289139816006600b81106110b2577f4e487b7100000000000000000000000000000000000000000000000000000000600052603260045260246000fd5b6020020181905250826040516020016110cb91906139e4565b604051602081830303815290604052816007600b8110611114577f4e487b7100000000000000000000000000000000000000000000000000000000600052603260045260246000fd5b602002018190525060405180606001604052806029815260200161431460299139816008600b811061116f577f4e487b7100000000000000000000000000000000000000000000000000000000600052603260045260246000fd5b602002018190525081816009600b81106111b2577f4e487b7100000000000000000000000000000000000000000000000000000000600052603260045260246000fd5b60200201819052506040518060400160405280600d81526020017f3c2f746578743e3c2f7376673e0000000000000000000000000000000000000081525081600a600b811061122a577f4e487b7100000000000000000000000000000000000000000000000000000000600052603260045260246000fd5b60200201819052506000816000600b811061126e577f4e487b7100000000000000000000000000000000000000000000000000000000600052603260045260246000fd5b6020020151826001600b81106112ad577f4e487b7100000000000000000000000000000000000000000000000000000000600052603260045260246000fd5b6020020151836002600b81106112ec577f4e487b7100000000000000000000000000000000000000000000000000000000600052603260045260246000fd5b6020020151846003600b811061132b577f4e487b7100000000000000000000000000000000000000000000000000000000600052603260045260246000fd5b6020020151856004600b811061136a577f4e487b7100000000000000000000000000000000000000000000000000000000600052603260045260246000fd5b6020020151866005600b81106113a9577f4e487b7100000000000000000000000000000000000000000000000000000000600052603260045260246000fd5b6020020151876006600b81106113e8577f4e487b7100000000000000000000000000000000000000000000000000000000600052603260045260246000fd5b6020020151886007600b8110611427577f4e487b7100000000000000000000000000000000000000000000000000000000600052603260045260246000fd5b6020020151896008600b8110611466577f4e487b7100000000000000000000000000000000000000000000000000000000600052603260045260246000fd5b60200201518a6009600b81106114a5577f4e487b7100000000000000000000000000000000000000000000000000000000600052603260045260246000fd5b60200201518b600a600b81106114e4577f4e487b7100000000000000000000000000000000000000000000000000000000600052603260045260246000fd5b60200201516040516020016115039b9a9998979695949392919061394b565b604051602081830303815290604052905080975050505050505050919050565b6060600061159a84600081518110611564577f4e487b7100000000000000000000000000000000000000000000000000000000600052603260045260246000fd5b602002602001015161157585611d98565b604051602001611586929190613927565b6040516020818303038152906040526125e8565b90508351816115a99190614144565b90508381815181106115e4577f4e487b7100000000000000000000000000000000000000000000000000000000600052603260045260246000fd5b602002602001015191505092915050565b6000806002600084815260200190815260200160002060009054906101000a900473ffffffffffffffffffffffffffffffffffffffff169050600073ffffffffffffffffffffffffffffffffffffffff168173ffffffffffffffffffffffffffffffffffffffff16141561169e576040517f08c379a000000000000000000000000000000000000000000000000000000000815260040161169590613c7a565b60405180910390fd5b80915050919050565b60008073ffffffffffffffffffffffffffffffffffffffff168273ffffffffffffffffffffffffffffffffffffffff161415611718576040517f08c379a000000000000000000000000000000000000000000000000000000000815260040161170f90613c5a565b60405180910390fd5b600360008373ffffffffffffffffffffffffffffffffffffffff1673ffffffffffffffffffffffffffffffffffffffff168152602001908152602001600020549050919050565b6000600161176d6007611d8a565b6117779190613fd1565b905090565b60606001805461178b906140c9565b80601f01602080910402602001604051908101604052809291908181526020018280546117b7906140c9565b80156118045780601f106117d957610100808354040283529160200191611804565b820191906000526020600020905b8154815290600101906020018083116117e757829003601f168201915b5050505050905090565b611816611cc9565b73ffffffffffffffffffffffffffffffffffffffff168273ffffffffffffffffffffffffffffffffffffffff161415611884576040517f08c379a000000000000000000000000000000000000000000000000000000000815260040161187b90613bfa565b60405180910390fd5b8060056000611891611cc9565b73ffffffffffffffffffffffffffffffffffffffff1673ffffffffffffffffffffffffffffffffffffffff16815260200190815260200160002060008473ffffffffffffffffffffffffffffffffffffffff1673ffffffffffffffffffffffffffffffffffffffff16815260200190815260200160002060006101000a81548160ff0219169083151502179055508173ffffffffffffffffffffffffffffffffffffffff1661193e611cc9565b73ffffffffffffffffffffffffffffffffffffffff167f17307eab39ab6107e8899845ad3d59bd9653f200f220920489ca2b5937696c31836040516119839190613b1f565b60405180910390a35050565b6119a061199a611cc9565b836122ae565b6119df576040517f08c379a00000000000000000000000000000000000000000000000000000000081526004016119d690613d9a565b60405180910390fd5b6119eb8484848461261b565b50505050565b60606119fc82611c5d565b611a3b576040517f08c379a0000000000000000000000000000000000000000000000000000000008152600401611a3290613cda565b60405180910390fd5b6000600660008481526020019081526020016000208054611a5b906140c9565b80601f0160208091040260200160405190810160405280929190818152602001828054611a87906140c9565b8015611ad45780601f10611aa957610100808354040283529160200191611ad4565b820191906000526020600020905b815481529060010190602001808311611ab757829003601f168201915b505050505090506000611ae5612677565b9050600081511415611afb578192505050611b3e565b600082511115611b30578082604051602001611b18929190613927565b60405160208183030381529060405292505050611b3e565b611b398461268e565b925050505b919050565b6122b881565b6000600560008473ffffffffffffffffffffffffffffffffffffffff1673ffffffffffffffffffffffffffffffffffffffff16815260200190815260200160002060008373ffffffffffffffffffffffffffffffffffffffff1673ffffffffffffffffffffffffffffffffffffffff16815260200190815260200160002060009054906101000a900460ff16905092915050565b6001816000016000828254019250508190555050565b60007f01ffc9a7000000000000000000000000000000000000000000000000000000007bffffffffffffffffffffffffffffffffffffffffffffffffffffffff1916827bffffffffffffffffffffffffffffffffffffffffffffffffffffffff1916149050919050565b60008073ffffffffffffffffffffffffffffffffffffffff166002600084815260200190815260200160002060009054906101000a900473ffffffffffffffffffffffffffffffffffffffff1673ffffffffffffffffffffffffffffffffffffffff1614159050919050565b600033905090565b816004600083815260200190815260200160002060006101000a81548173ffffffffffffffffffffffffffffffffffffffff021916908373ffffffffffffffffffffffffffffffffffffffff160217905550808273ffffffffffffffffffffffffffffffffffffffff16611d44836115f5565b73ffffffffffffffffffffffffffffffffffffffff167f8c5be1e5ebec7d5bd14f71427d1e84f3dd0314c0f7b2291e5b200ac8c7c3b92560405160405180910390a45050565b600081600001549050919050565b60606000821415611de0576040518060400160405280600181526020017f30000000000000000000000000000000000000000000000000000000000000008152509050611f40565b600082905060005b60008214611e12578080611dfb906140fb565b915050600a82611e0b9190613f46565b9150611de8565b60008167ffffffffffffffff811115611e54577f4e487b7100000000000000000000000000000000000000000000000000000000600052604160045260246000fd5b6040519080825280601f01601f191660200182016040528015611e865781602001600182028036833780820191505090505b5090505b60008514611f3957600182611e9f9190613fd1565b9150600a85611eae9190614144565b6030611eba9190613ef0565b60f81b818381518110611ef6577f4e487b7100000000000000000000000000000000000000000000000000000000600052603260045260246000fd5b60200101907effffffffffffffffffffffffffffffffffffffffffffffffffffffffffffff1916908160001a905350600a85611f329190613f46565b9450611e8a565b8093505050505b919050565b6060600082511415611f68576040518060200160405280600081525090506120df565b600060405180606001604052806040815260200161433d6040913990506000600360028551611f979190613ef0565b611fa19190613f46565b6004611fad9190613f77565b90506000602082611fbe9190613ef0565b67ffffffffffffffff811115611ffd577f4e487b7100000000000000000000000000000000000000000000000000000000600052604160045260246000fd5b6040519080825280601f01601f19166020018201604052801561202f5781602001600182028036833780820191505090505b509050818152600183018586518101602084015b8183101561209e576003830192508251603f8160121c168501518253600182019150603f81600c1c168501518253600182019150603f8160061c168501518253600182019150603f8116850151825360018201915050612043565b6003895106600181146120b857600281146120c8576120d3565b613d3d60f01b60028303526120d3565b603d60f81b60018303525b50505050508093505050505b919050565b61217a816040516024016120f89190613b3a565b6040516020818303038152906040527f41304fac000000000000000000000000000000000000000000000000000000007bffffffffffffffffffffffffffffffffffffffffffffffffffffffff19166020820180517bffffffffffffffffffffffffffffffffffffffffffffffffffffffff8381831617835250505050612735565b50565b61219782826040518060200160405280600081525061275e565b5050565b6121a482611c5d565b6121e3576040517f08c379a00000000000000000000000000000000000000000000000000000000081526004016121da90613c9a565b60405180910390fd5b8060066000848152602001908152602001600020908051906020019061220a929190612b5e565b505050565b6122a983838360405160240161222793929190613b5c565b6040516020818303038152906040527fe3849f79000000000000000000000000000000000000000000000000000000007bffffffffffffffffffffffffffffffffffffffffffffffffffffffff19166020820180517bffffffffffffffffffffffffffffffffffffffffffffffffffffffff8381831617835250505050612735565b505050565b60006122b982611c5d565b6122f8576040517f08c379a00000000000000000000000000000000000000000000000000000000081526004016122ef90613c1a565b60405180910390fd5b6000612303836115f5565b90508073ffffffffffffffffffffffffffffffffffffffff168473ffffffffffffffffffffffffffffffffffffffff16148061237257508373ffffffffffffffffffffffffffffffffffffffff1661235a8461051d565b73ffffffffffffffffffffffffffffffffffffffff16145b8061238357506123828185611b49565b5b91505092915050565b8273ffffffffffffffffffffffffffffffffffffffff166123ac826115f5565b73ffffffffffffffffffffffffffffffffffffffff1614612402576040517f08c379a00000000000000000000000000000000000000000000000000000000081526004016123f990613d3a565b60405180910390fd5b600073ffffffffffffffffffffffffffffffffffffffff168273ffffffffffffffffffffffffffffffffffffffff161415612472576040517f08c379a000000000000000000000000000000000000000000000000000000000815260040161246990613bda565b60405180910390fd5b61247d8383836127b9565b612488600082611cd1565b6001600360008573ffffffffffffffffffffffffffffffffffffffff1673ffffffffffffffffffffffffffffffffffffffff16815260200190815260200160002060008282546124d89190613fd1565b925050819055506001600360008473ffffffffffffffffffffffffffffffffffffffff1673ffffffffffffffffffffffffffffffffffffffff168152602001908152602001600020600082825461252f9190613ef0565b92505081905550816002600083815260200190815260200160002060006101000a81548173ffffffffffffffffffffffffffffffffffffffff021916908373ffffffffffffffffffffffffffffffffffffffff160217905550808273ffffffffffffffffffffffffffffffffffffffff168473ffffffffffffffffffffffffffffffffffffffff167fddf252ad1be2c89b69c2b068fc378daa952ba7f163c4a11628f55a4df523b3ef60405160405180910390a4505050565b6000816040516020016125fb9190613910565b6040516020818303038152906040528051906020012060001c9050919050565b61262684848461238c565b612632848484846127be565b612671576040517f08c379a000000000000000000000000000000000000000000000000000000000815260040161266890613b9a565b60405180910390fd5b50505050565b606060405180602001604052806000815250905090565b606061269982611c5d565b6126d8576040517f08c379a00000000000000000000000000000000000000000000000000000000081526004016126cf90613d5a565b60405180910390fd5b60006126e2612677565b90506000815111612702576040518060200160405280600081525061272d565b8061270c84611d98565b60405160200161271d929190613927565b6040516020818303038152906040525b915050919050565b60008151905060006a636f6e736f6c652e6c6f679050602083016000808483855afa5050505050565b6127688383612955565b61277560008484846127be565b6127b4576040517f08c379a00000000000000000000000000000000000000000000000000000000081526004016127ab90613b9a565b60405180910390fd5b505050565b505050565b60006127df8473ffffffffffffffffffffffffffffffffffffffff16612b23565b15612948578373ffffffffffffffffffffffffffffffffffffffff1663150b7a02612808611cc9565b8786866040518563ffffffff1660e01b815260040161282a9493929190613aaa565b602060405180830381600087803b15801561284457600080fd5b505af192505050801561287557506040513d601f19601f820116820180604052508101906128729190612fe5565b60015b6128f8573d80600081146128a5576040519150601f19603f3d011682016040523d82523d6000602084013e6128aa565b606091505b506000815114156128f0576040517f08c379a00000000000000000000000000000000000000000000000000000000081526004016128e790613b9a565b60405180910390fd5b805181602001fd5b63150b7a0260e01b7bffffffffffffffffffffffffffffffffffffffffffffffffffffffff1916817bffffffffffffffffffffffffffffffffffffffffffffffffffffffff19161491505061294d565b600190505b949350505050565b600073ffffffffffffffffffffffffffffffffffffffff168273ffffffffffffffffffffffffffffffffffffffff1614156129c5576040517f08c379a00000000000000000000000000000000000000000000000000000000081526004016129bc90613cba565b60405180910390fd5b6129ce81611c5d565b15612a0e576040517f08c379a0000000000000000000000000000000000000000000000000000000008152600401612a0590613bba565b60405180910390fd5b612a1a600083836127b9565b6001600360008473ffffffffffffffffffffffffffffffffffffffff1673ffffffffffffffffffffffffffffffffffffffff1681526020019081526020016000206000828254612a6a9190613ef0565b92505081905550816002600083815260200190815260200160002060006101000a81548173ffffffffffffffffffffffffffffffffffffffff021916908373ffffffffffffffffffffffffffffffffffffffff160217905550808273ffffffffffffffffffffffffffffffffffffffff16600073ffffffffffffffffffffffffffffffffffffffff167fddf252ad1be2c89b69c2b068fc378daa952ba7f163c4a11628f55a4df523b3ef60405160405180910390a45050565b600080823b905060008111915050919050565b604051806101600160405280600b905b6060815260200190600190039081612b465790505090565b828054612b6a906140c9565b90600052602060002090601f016020900481019282612b8c5760008555612bd3565b82601f10612ba557805160ff1916838001178555612bd3565b82800160010185558215612bd3579182015b82811115612bd2578251825591602001919060010190612bb7565b5b509050612be09190612be4565b5090565b5b80821115612bfd576000816000905550600101612be5565b5090565b6000612c14612c0f84613e21565b613df0565b9050808382526020820190508260005b85811015612c545781358501612c3a8882612d82565b845260208401935060208301925050600181019050612c24565b5050509392505050565b6000612c71612c6c84613e4d565b613df0565b905082815260208101848484011115612c8957600080fd5b612c94848285614087565b509392505050565b6000612caf612caa84613e7d565b613df0565b905082815260208101848484011115612cc757600080fd5b612cd2848285614087565b509392505050565b600081359050612ce981614242565b92915050565b600082601f830112612d0057600080fd5b8135612d10848260208601612c01565b91505092915050565b600081359050612d2881614259565b92915050565b600081359050612d3d81614270565b92915050565b600081519050612d5281614270565b92915050565b600082601f830112612d6957600080fd5b8135612d79848260208601612c5e565b91505092915050565b600082601f830112612d9357600080fd5b8135612da3848260208601612c9c565b91505092915050565b600081359050612dbb81614287565b92915050565b600060208284031215612dd357600080fd5b6000612de184828501612cda565b91505092915050565b60008060408385031215612dfd57600080fd5b6000612e0b85828601612cda565b9250506020612e1c85828601612cda565b9150509250929050565b600080600060608486031215612e3b57600080fd5b6000612e4986828701612cda565b9350506020612e5a86828701612cda565b9250506040612e6b86828701612dac565b9150509250925092565b60008060008060808587031215612e8b57600080fd5b6000612e9987828801612cda565b9450506020612eaa87828801612cda565b9350506040612ebb87828801612dac565b925050606085013567ffffffffffffffff811115612ed857600080fd5b612ee487828801612d58565b91505092959194509250565b60008060408385031215612f0357600080fd5b6000612f1185828601612cda565b9250506020612f2285828601612d19565b9150509250929050565b60008060408385031215612f3f57600080fd5b6000612f4d85828601612cda565b9250506020612f5e85828601612dac565b9150509250929050565b60008060408385031215612f7b57600080fd5b600083013567ffffffffffffffff811115612f9557600080fd5b612fa185828601612cef565b9250506020612fb285828601612dac565b9150509250929050565b600060208284031215612fce57600080fd5b6000612fdc84828501612d2e565b91505092915050565b600060208284031215612ff757600080fd5b600061300584828501612d43565b91505092915050565b60006020828403121561302057600080fd5b600061302e84828501612dac565b91505092915050565b61304081614005565b82525050565b61304f81614017565b82525050565b600061306082613ead565b61306a8185613ec3565b935061307a818560208601614096565b61308381614231565b840191505092915050565b600061309982613eb8565b6130a38185613ed4565b93506130b3818560208601614096565b6130bc81614231565b840191505092915050565b60006130d282613eb8565b6130dc8185613ee5565b93506130ec818560208601614096565b80840191505092915050565b6000613105603283613ed4565b91507f4552433732313a207472616e7366657220746f206e6f6e20455243373231526560008301527f63656976657220696d706c656d656e74657200000000000000000000000000006020830152604082019050919050565b600061316b601c83613ed4565b91507f4552433732313a20746f6b656e20616c7265616479206d696e746564000000006000830152602082019050919050565b60006131ab602483613ed4565b91507f4552433732313a207472616e7366657220746f20746865207a65726f2061646460008301527f72657373000000000000000000000000000000000000000000000000000000006020830152604082019050919050565b6000613211601983613ed4565b91507f4552433732313a20617070726f766520746f2063616c6c6572000000000000006000830152602082019050919050565b6000613251600283613ee5565b91507f202b0000000000000000000000000000000000000000000000000000000000006000830152600282019050919050565b6000613291605a83613ee5565b91507f222c20226465736372697074696f6e223a2022412067656e657261746976652060008301527f636f636b7461696c20636f6c6c656374696f6e222c2022696d616765223a202260208301527f646174613a696d6167652f7376672b786d6c3b6261736536342c0000000000006040830152605a82019050919050565b600061331d602c83613ed4565b91507f4552433732313a206f70657261746f7220717565727920666f72206e6f6e657860008301527f697374656e7420746f6b656e00000000000000000000000000000000000000006020830152604082019050919050565b6000613383603883613ed4565b91507f4552433732313a20617070726f76652063616c6c6572206973206e6f74206f7760008301527f6e6572206e6f7220617070726f76656420666f7220616c6c00000000000000006020830152604082019050919050565b60006133e9602a83613ed4565b91507f4552433732313a2062616c616e636520717565727920666f7220746865207a6560008301527f726f2061646472657373000000000000000000000000000000000000000000006020830152604082019050919050565b600061344f602983613ed4565b91507f4552433732313a206f776e657220717565727920666f72206e6f6e657869737460008301527f656e7420746f6b656e00000000000000000000000000000000000000000000006020830152604082019050919050565b60006134b5602e83613ed4565b91507f45524337323155524953746f726167653a2055524920736574206f66206e6f6e60008301527f6578697374656e7420746f6b656e0000000000000000000000000000000000006020830152604082019050919050565b600061351b600283613ee5565b91507f227d0000000000000000000000000000000000000000000000000000000000006000830152600282019050919050565b600061355b602083613ed4565b91507f4552433732313a206d696e7420746f20746865207a65726f20616464726573736000830152602082019050919050565b600061359b603183613ed4565b91507f45524337323155524953746f726167653a2055524920717565727920666f722060008301527f6e6f6e6578697374656e7420746f6b656e0000000000000000000000000000006020830152604082019050919050565b6000613601602c83613ed4565b91507f4552433732313a20617070726f76656420717565727920666f72206e6f6e657860008301527f697374656e7420746f6b656e00000000000000000000000000000000000000006020830152604082019050919050565b6000613667600f83613ed4565b91507f416c6c204e465473206d696e74656400000000000000000000000000000000006000830152602082019050919050565b60006136a7602983613ed4565b91507f4552433732313a207472616e73666572206f6620746f6b656e2074686174206960008301527f73206e6f74206f776e00000000000000000000000000000000000000000000006020830152604082019050919050565b600061370d602f83613ed4565b91507f4552433732314d657461646174613a2055524920717565727920666f72206e6f60008301527f6e6578697374656e7420746f6b656e00000000000000000000000000000000006020830152604082019050919050565b6000613773600a83613ee5565b91507f7b226e616d65223a2022000000000000000000000000000000000000000000006000830152600a82019050919050565b60006137b3602183613ed4565b91507f4552433732313a20617070726f76616c20746f2063757272656e74206f776e6560008301527f72000000000000000000000000000000000000000000000000000000000000006020830152604082019050919050565b6000613819601d83613ee5565b91507f646174613a6170706c69636174696f6e2f6a736f6e3b6261736536342c0000006000830152601d82019050919050565b6000613859603183613ed4565b91507f4552433732313a207472616e736665722063616c6c6572206973206e6f74206f60008301527f776e6572206e6f7220617070726f7665640000000000000000000000000000006020830152604082019050919050565b60006138bf600a83613ee5565b91507f436f636b7461696c2023000000000000000000000000000000000000000000006000830152600a82019050919050565b6138fb8161404f565b82525050565b61390a8161407d565b82525050565b600061391c82846130c7565b915081905092915050565b600061393382856130c7565b915061393f82846130c7565b91508190509392505050565b6000613957828e6130c7565b9150613963828d6130c7565b915061396f828c6130c7565b915061397b828b6130c7565b9150613987828a6130c7565b915061399382896130c7565b915061399f82886130c7565b91506139ab82876130c7565b91506139b782866130c7565b91506139c382856130c7565b91506139cf82846130c7565b91508190509c9b505050505050505050505050565b60006139f082846130c7565b91506139fb82613244565b915081905092915050565b6000613a1182613766565b9150613a1d82856130c7565b9150613a2882613284565b9150613a3482846130c7565b9150613a3f8261350e565b91508190509392505050565b6000613a568261380c565b9150613a6282846130c7565b915081905092915050565b6000613a78826138b2565b9150613a8482846130c7565b915081905092915050565b6000602082019050613aa46000830184613037565b92915050565b6000608082019050613abf6000830187613037565b613acc6020830186613037565b613ad96040830185613901565b8181036060830152613aeb8184613055565b905095945050505050565b6000604082019050613b0b6000830185613037565b613b186020830184613901565b9392505050565b6000602082019050613b346000830184613046565b92915050565b60006020820190508181036000830152613b54818461308e565b905092915050565b60006060820190508181036000830152613b76818661308e565b9050613b856020830185613901565b613b926040830184613037565b949350505050565b60006020820190508181036000830152613bb3816130f8565b9050919050565b60006020820190508181036000830152613bd38161315e565b9050919050565b60006020820190508181036000830152613bf38161319e565b9050919050565b60006020820190508181036000830152613c1381613204565b9050919050565b60006020820190508181036000830152613c3381613310565b9050919050565b60006020820190508181036000830152613c5381613376565b9050919050565b60006020820190508181036000830152613c73816133dc565b9050919050565b60006020820190508181036000830152613c9381613442565b9050919050565b60006020820190508181036000830152613cb3816134a8565b9050919050565b60006020820190508181036000830152613cd38161354e565b9050919050565b60006020820190508181036000830152613cf38161358e565b9050919050565b60006020820190508181036000830152613d13816135f4565b9050919050565b60006020820190508181036000830152613d338161365a565b9050919050565b60006020820190508181036000830152613d538161369a565b9050919050565b60006020820190508181036000830152613d7381613700565b9050919050565b60006020820190508181036000830152613d93816137a6565b9050919050565b60006020820190508181036000830152613db38161384c565b9050919050565b6000602082019050613dcf60008301846138f2565b92915050565b6000602082019050613dea6000830184613901565b92915050565b6000604051905081810181811067ffffffffffffffff82111715613e1757613e16614202565b5b8060405250919050565b600067ffffffffffffffff821115613e3c57613e3b614202565b5b602082029050602081019050919050565b600067ffffffffffffffff821115613e6857613e67614202565b5b601f19601f8301169050602081019050919050565b600067ffffffffffffffff821115613e9857613e97614202565b5b601f19601f8301169050602081019050919050565b600081519050919050565b600081519050919050565b600082825260208201905092915050565b600082825260208201905092915050565b600081905092915050565b6000613efb8261407d565b9150613f068361407d565b9250827fffffffffffffffffffffffffffffffffffffffffffffffffffffffffffffffff03821115613f3b57613f3a614175565b5b828201905092915050565b6000613f518261407d565b9150613f5c8361407d565b925082613f6c57613f6b6141a4565b5b828204905092915050565b6000613f828261407d565b9150613f8d8361407d565b9250817fffffffffffffffffffffffffffffffffffffffffffffffffffffffffffffffff0483118215151615613fc657613fc5614175565b5b828202905092915050565b6000613fdc8261407d565b9150613fe78361407d565b925082821015613ffa57613ff9614175565b5b828203905092915050565b60006140108261405d565b9050919050565b60008115159050919050565b60007fffffffff0000000000000000000000000000000000000000000000000000000082169050919050565b600061ffff82169050919050565b600073ffffffffffffffffffffffffffffffffffffffff82169050919050565b6000819050919050565b82818337600083830152505050565b60005b838110156140b4578082015181840152602081019050614099565b838111156140c3576000848401525b50505050565b600060028204905060018216806140e157607f821691505b602082108114156140f5576140f46141d3565b5b50919050565b60006141068261407d565b91507fffffffffffffffffffffffffffffffffffffffffffffffffffffffffffffffff82141561413957614138614175565b5b600182019050919050565b600061414f8261407d565b915061415a8361407d565b92508261416a576141696141a4565b5b828206905092915050565b7f4e487b7100000000000000000000000000000000000000000000000000000000600052601160045260246000fd5b7f4e487b7100000000000000000000000000000000000000000000000000000000600052601260045260246000fd5b7f4e487b7100000000000000000000000000000000000000000000000000000000600052602260045260246000fd5b7f4e487b7100000000000000000000000000000000000000000000000000000000600052604160045260246000fd5b6000601f19601f8301169050919050565b61424b81614005565b811461425657600080fd5b50565b61426281614017565b811461426d57600080fd5b50565b61427981614023565b811461428457600080fd5b50565b6142908161407d565b811461429b57600080fd5b5056fe3c2f746578743e3c7465787420783d2231302220793d2236302220636c6173733d2262617365223e416e204e465420772f20494420257320686173206265656e206d696e74656420746f2025733c2f746578743e3c7465787420783d2231302220793d2238302220636c6173733d2262617365223e3c2f746578743e3c7465787420783d2231302220793d223130302220636c6173733d2262617365223e4142434445464748494a4b4c4d4e4f505152535455565758595a6162636465666768696a6b6c6d6e6f707172737475767778797a303132333435363738392b2f3c2f746578743e3c7465787420783d2231302220793d2234302220636c6173733d2262617365223ea2646970667358221220e56a9abe2271b444647fb2331bbb0a9d185ee945e6e3b2e1d802b0ccb01ddf0964736f6c634300080000333c73766720786d6c6e733d22687474703a2f2f7777772e77332e6f72672f323030302f73766722207072657365727665417370656374526174696f3d22784d696e594d696e206d656574222076696577426f783d223020302033353020333530223e3c7374796c653e2e62617365207b2066696c6c3a2077686974653b20666f6e742d66616d696c793a206d6f6e6f73706163653b20666f6e742d73697a653a20313870783b207d3c2f7374796c653e3c726563742077696474683d223130302522206865696768743d2231303025222066696c6c3d22626c61636b22202f3e3c7465787420783d2231302220793d2232302220636c6173733d2262617365223e",
    "linkReferences": {},
    "deployedLinkReferences": {}
}